:100000000C9454000C9471000C9471000C947100C9
:100010000C9471000C9471000C9471000C9471009C
:100020000C9471000C9471000C9471000C9471008C
:100030000C9471000C9471000C9471000C9471007C
:100040000C9471000C9471000C9471000C9471006C
:100050000C9471000C9471000C9471000C9471005C
:100060000C9471000C9471004201E500E800EB0073
:10007000EE00F100F400F700FA00FD0000010301BA
:10008000060109010C010F011201150118011B01E4
:100090001E012101240127012A012D013001330114
:1000A000360139013C013F0111241FBECFEFD8E0DA
:1000B000DEBFCDBF11E0A0E0B1E0E8E9FBE202C0A5
:1000C00005900D92A430B107D9F721E0A4E0B1E08A
:1000D00001C01D92A530B207E1F70E94ED130C9408
:1000E000CA150C94000020E030E008C0EFE9FFE002
:1000F0003197F1F700C000002F5F3F4F28173907F5
:10010000A8F3089590E036C0E7E0F0E0E91BF109BC
:10011000242F30E002C035952795EA95E2F720FFBD
:100120000CC05BB121E030E0082E02C0220F331F6B
:100130000A94E2F7252B2BB90CC05BB121E030E02B
:10014000082E02C0220F331F0A94E2F720952523C0
:100150002BB95BB121E030E0062E02C0220F331F25
:100160000A94E2F7352F322B3BB93BB1209523237C
:100170002BB99F5F983040F208959BB19D7F9BB94A
:100180009BB19B7F9BB99BB19B7F9BB9482F61E043
:1001900080E00E9482008BB184608BB90895CF9279
:1001A000DF92EF92FF921F93CF93DF93D42FC22E53
:1001B000D12CF6013197E032F10520F4EC5CFF4FD1
:1001C0000C94C415C0E010E05FC0C0E012E05CC059
:1001D000C0E013E059C0C0E014E056C0C0E015E034
:1001E00053C0C0E016E050C0C0E017E04DC0C1E011
:1001F00010E04AC0C1E011E047C0C1E012E044C0D5
:10020000C1E013E041C0C1E014E03EC0C1E015E030
:100210003BC0C1E016E038C0C1E017E035C0C2E025
:1002200010E032C0C2E011E02FC0C2E012E02CC0EA
:10023000C2E013E029C0C2E014E026C0C2E015E02D
:1002400023C0C2E016E020C0C2E017E01DC0C3E03A
:1002500010E01AC0C3E011E017C0C3E012E014C000
:10026000C3E013E011C0C3E014E00EC0C3E015E02A
:100270000BC0C3E016E008C0C3E017E005C0CAE049
:100280001AE002C0C0E011E09B01AC0160E070E642
:100290008AE697E40E94281420E030E040E85EE31C
:1002A0000E9457156B017C016D2F70E080E090E09B
:1002B0000E94CB14A70196010E9457156B017C0187
:1002C0004BB12C2F30E02D5F3F4F81E090E0EC01EF
:1002D00002C0CC0FDD1F2A95E2F79C2F942B9BB90F
:1002E00001C0880F1A95EAF70E94BD0020E030E0B7
:1002F00040E05FE3C701B6010E9457150E949A14BF
:100300006B017C01CB010E9473008BB1C095C823A7
:10031000CBB980E00E94BD00C6010E947300DF914E
:10032000CF911F91FF90EF90DF90CF900895CF92E3
:10033000DF92EF92FF926B017C0127E04091020176
:100340000E94CF0028E040910201C701B6010E943F
:10035000CF002AE040910201C701B6010E94CF0000
:100360002AE040910201C701B6010E94CF0028E0B7
:1003700040910201C701B6010E94CF0027E04091E1
:100380000201C701B6010E94CF0025E040910201A1
:10039000C701B6010E94CF0023E040910201C701CE
:1003A000B6010E94CF0023E040910201C701B601CF
:1003B0000E94CF0025E040910201C701B6010E94D2
:1003C000CF0027E040910201C701B6010E94CF0093
:1003D0004091020180910101480F27E0C701B60159
:1003E0000E94CF0025E040910101C701B6010E94A3
:1003F000CF0040910201440F25E0C701B6010E94E1
:10040000CF0027E040910201C701B6010E94CF0052
:1004100027E040910201C701B6010E94CF0028E009
:1004200040910201C701B6010E94CF002AE040912D
:100430000201C701B6010E94CF002AE040910201EB
:10044000C701B6010E94CF0028E040910201C70118
:10045000B6010E94CF0027E040910201C701B6011A
:100460000E94CF0025E040910201C701B6010E9421
:10047000CF0023E040910201C701B6010E94CF00E6
:1004800023E040910201C701B6010E94CF0025E0A0
:1004900040910201C701B6010E94CF0027E04091C0
:1004A0000201C701B6010E94CF0040910201809174
:1004B0000101480F25E0C701B6010E94CF0023E0EB
:1004C00040910101C701B6010E94CF004091020195
:1004D000440F23E0C701B6010E94CF0025E0409100
:1004E0000201C701B6010E94CF0025E04091020140
:1004F000C701B6010E94CF0027E040910201C70169
:10050000B6010E94CF0023E040910201C701B6016D
:100510000E94CF0025E040910201C701B6010E9470
:10052000CF0027E040910101C701B6010E94CF0032
:1005300028E040910101C701B6010E94CF0027E0E9
:1005400040910201C701B6010E94CF0023E0409113
:100550000201C701B6010E94CF0025E040910201CF
:10056000C701B6010E94CF0027E040910101C701F9
:10057000B6010E94CF0028E040910101C701B601F9
:100580000E94CF0027E040910201C701B6010E94FE
:10059000CF0025E040910201C701B6010E94CF00C3
:1005A00023E040910201C701B6010E94CF0025E07F
:1005B00040910201C701B6010E94CF0040910201A3
:1005C000440F2AE0C701B6010E94CF0027E0409106
:1005D0000201C701B6010E94CF0027E0409102014D
:1005E000C701B6010E94CF0028E040910201C70177
:1005F000B6010E94CF002AE040910201C701B60176
:100600000E94CF002AE040910201C701B6010E947A
:10061000CF0028E040910201C701B6010E94CF003F
:1006200027E040910201C701B6010E94CF0025E0FA
:1006300040910201C701B6010E94CF0023E0409122
:100640000201C701B6010E94CF0023E040910201E0
:10065000C701B6010E94CF0025E040910201C70109
:10066000B6010E94CF0027E040910201C701B60108
:100670000E94CF004091020180910101480F25E0C6
:10068000C701B6010E94CF0023E040910101C701DC
:10069000B6010E94CF0040910201440F23E0C70140
:1006A000B6010E94CF00FF90EF90DF90CF900895A9
:1006B000CF92DF92EF92FF926B017C0128E1409193
:1006C00001010E94CF0027E140910101C701B6015D
:1006D0000E94CF0028E140910101C701B6010E94AC
:1006E000CF0027E140910101C701B6010E94CF0070
:1006F00028E140910101C701B6010E94CF0023E12A
:1007000040910101C701B6010E94CF0026E140914E
:100710000101C701B6010E94CF0024E1409101010F
:10072000C701B6010E94CF0021E140910101C7013C
:10073000B6010E94CF0020E240910201C701B6013C
:100740000E94CF0028E040910101C701B6010E943C
:10075000CF002CE040910101C701B6010E94CF00FB
:1007600021E140910101C701B6010E94CF0023E1C0
:1007700040910101C701B6010E94CF0020E24091E3
:100780000201C701B6010E94CF002CE04091010197
:10079000C701B6010E94CF0020E140910101C701CD
:1007A000B6010E94CF0023E140910101C701B601CB
:1007B0000E94CF0024E140910101C701B6010E94CF
:1007C000CF0020E240910201C701B6010E94CF0094
:1007D0002CE040910101C701B6010E94CF0028E141
:1007E00040910101C701B6010E94CF0027E140916D
:1007F0000101C701B6010E94CF0028E1409101012B
:10080000C701B6010E94CF0027E140910101C70155
:10081000B6010E94CF0028E140910101C701B60155
:100820000E94CF0023E140910101C701B6010E945F
:10083000CF0026E140910101C701B6010E94CF001F
:1008400024E140910101C701B6010E94CF0021E1DE
:1008500040910101C701B6010E94CF0020E2409102
:100860000201C701B6010E94CF0028E040910101BA
:10087000C701B6010E94CF002CE040910101C701E1
:10088000B6010E94CF0021E140910101C701B601EC
:100890000E94CF0023E140910101C701B6010E94EF
:1008A000CF0020E240910201C701B6010E94CF00B3
:1008B0002CE040910101C701B6010E94CF0024E164
:1008C00040910101C701B6010E94CF0023E1409190
:1008D0000101C701B6010E94CF0021E14091010151
:1008E000C701B6010E94CF0020E240910201C7017A
:1008F000B6010E94CF0023E140910101C701B6017A
:100900000E94CF0024E140910101C701B6010E947D
:10091000CF0026E140910101C701B6010E94CF003E
:1009200028E140910101C701B6010E94CF0020E2F9
:1009300040910201C701B6010E94CF002FE0409113
:100940000101C701B6010E94CF0029E140910101D8
:10095000C701B6010E94CF0028E140910101C70103
:10096000B6010E94CF0026E140910101C701B60106
:100970000E94CF0020E240910201C701B6010E940F
:10098000CF002DE040910101C701B6010E94CF00C8
:1009900028E140910101C701B6010E94CF0026E184
:1009A00040910101C701B6010E94CF0024E14091AE
:1009B0000101C701B6010E94CF0020E2409102016F
:1009C000C701B6010E94CF002CE040910101C70190
:1009D000B6010E94CF0026E140910101C701B60196
:1009E0000E94CF0024E140910101C701B6010E949D
:1009F000CF0023E140910101C701B6010E94CF0061
:100A000020E240910101C701B6010E94CF002CE015
:100A100040910101C701B6010E94CF0028E1409139
:100A20000101C701B6010E94CF002CE040910101F5
:100A3000C701B6010E94CF0028E140910101C70122
:100A4000B6010E94CF002CE040910101C701B60120
:100A50000E94CF0028E140910101C701B6010E9428
:100A6000CF002CE040910101C701B6010E94CF00E8
:100A700028E140910101C701B6010E94CF002CE09E
:100A800040910101C701B6010E94CF0020E24091D0
:100A90000101C701B6010E94CF0028E14091010188
:100AA000C701B6010E94CF0027E140910101C701B3
:100AB000B6010E94CF0028E140910101C701B601B3
:100AC0000E94CF0027E140910101C701B6010E94B9
:100AD000CF0028E140910101C701B6010E94CF007B
:100AE00027E140910001C701B6010E94CF0028E133
:100AF00040910001C701B6010E94CF0027E140915B
:100B00000001C701B6010E94CF0028E14091000119
:100B1000C701B6010E94CF0027E140910001C70143
:100B2000B6010E94CF0028E140910001C701B60143
:100B30000E94CF0027E140910001C701B6010E9449
:100B4000CF0028E140910001C701B6010E94CF000B
:100B500027E140910001C701B6010E94CF0028E1C2
:100B600040910001C701B6010E94CF0023E14091EE
:100B70000201C701B6010E94CF0026E140910201A7
:100B8000C701B6010E94CF0040910201440F24E149
:100B9000C701B6010E94CF0040910201440F21E13C
:100BA000C701B6010E94CF0040910201440F25E029
:100BB000C701B6010E94CF00FF90EF90DF90CF9069
:100BC0000895CF92DF92EF92FF926B017C0128E0B3
:100BD000409102010E94CF002DE040910201C70127
:100BE000B6010E94CF002DE040910101C701B6017E
:100BF0000E94CF002DE040910101C701B6010E9483
:100C0000CF0028E040910201C701B6010E94CF0049
:100C100028E040910201C701B6010E94CF0026E002
:100C200040910101C701B6010E94CF0026E040912A
:100C30000201C701B6010E94CF0025E040910201E8
:100C4000C701B6010E94CF0025E040910101C70114
:100C5000B6010E94CF0025E040910101C701B60115
:100C60000E94CF0025E040910101C701B6010E941A
:100C7000CF0025E040910201C701B6010E94CF00DC
:100C800025E040910101C701B6010E94CF0025E097
:100C900040910101C701B6010E94CF0025E04091BB
:100CA0000201C701B6010E94CF0021E0409101017D
:100CB000C701B6010E94CF0040910201809101015D
:100CC000480F23E0C701B6010E94CF0020E2409107
:100CD0000201C701B6010E94CF002DE04091010141
:100CE000C701B6010E94CF002DE040910101C7016C
:100CF000B6010E94CF002DE040910101C701B6016D
:100D00000E94CF002DE040910101C701B6010E9471
:100D1000CF0028E040910201C701B6010E94CF0038
:100D200028E040910201C701B6010E94CF0026E0F1
:100D300040910101C701B6010E94CF0026E0409119
:100D40000201C701B6010E94CF0025E040910101D8
:100D5000C701B6010E94CF0020E240910201C70105
:100D6000B6010E94CF0025E040910101C701B60104
:100D70000E94CF0025E040910101C701B6010E9409
:100D8000CF0025E040910201C701B6010E94CF00CB
:100D900025E040910101C701B6010E94CF0025E086
:100DA00040910101C701B6010E94CF0025E04091AA
:100DB0000201C701B6010E94CF0021E0409101016C
:100DC000C701B6010E94CF0023E040910201C70194
:100DD000B6010E94CF0040910201440F20E2C701FA
:100DE000B6010E94CF002DE040910201C701B6017B
:100DF0000E94CF002DE040910101C701B6010E9481
:100E0000CF002DE040910101C701B6010E94CF0043
:100E10002DE040910201C701B6010E94CF002DE0F4
:100E200040910101C701B6010E94CF002DE0409121
:100E30000101C701B6010E94CF002CE040910201E0
:100E4000C701B6010E94CF002CE040910101C7010B
:100E5000B6010E94CF002CE040910101C701B6010C
:100E60000E94CF002CE040910201C701B6010E9410
:100E7000CF002DE040910101C701B6010E94CF00D3
:100E80002DE040910201C701B6010E94CF002DE084
:100E900040910101C701B6010E94CF002DE04091B1
:100EA0000101C701B6010E94CF002DE04091010170
:100EB000C701B6010E94CF002DE040910201C70199
:100EC000B6010E94CF002DE040910101C701B6019B
:100ED0000E94CF002DE040910101C701B6010E94A0
:100EE000CF002CE040910101C701B6010E94CF0064
:100EF0002CE040910101C701B6010E94CF002CE017
:100F000040910101C701B6010E94CF002CE0409141
:100F10000101C701B6010E94CF002CE040910201FF
:100F2000C701B6010E94CF0040910201440F2DE09D
:100F3000C701B6010E94CF002DE040910101C70119
:100F4000B6010E94CF002DE040910101C701B6011A
:100F50000E94CF002DE040910101C701B6010E941F
:100F6000CF002DE040910101C701B6010E94CF00E2
:100F70002DE040910201C701B6010E94CF004091CF
:100F8000020180910101480F2FE0C701B6010E94C4
:100F9000CF0021E140910201C701B6010E94CF00BC
:100FA00020E240910201C701B6010E94CF002DE06E
:100FB00040910101C701B6010E94CF002DE0409190
:100FC0000101C701B6010E94CF002DE0409101014F
:100FD000C701B6010E94CF002DE040910101C70179
:100FE000B6010E94CF002DE040910201C701B60179
:100FF0000E94CF002DE040910201C701B6010E947E
:10100000CF004091020180910101480F2FE0C701FC
:10101000B6010E94CF0021E140910201C701B60153
:101020000E94CF0020E240910201C701B6010E9458
:10103000CF0028E040910101C701B6010E94CF0016
:101040002DE040910101C701B6010E94CF002DE0C3
:1010500040910101C701B6010E94CF002DE04091EF
:101060000101C701B6010E94CF002DE040910201AD
:10107000C701B6010E94CF002DE040910101C701D8
:10108000B6010E94CF002DE040910101C701B601D9
:101090000E94CF002CE040910101C701B6010E94DF
:1010A000CF002CE040910101C701B6010E94CF00A2
:1010B0002CE040910101C701B6010E94CF002CE055
:1010C00040910101C701B6010E94CF002CE0409180
:1010D0000101C701B6010E94CF002DE0409102013D
:1010E000C701B6010E94CF002DE040910101C70168
:1010F000B6010E94CF002DE040910101C701B60169
:101100000E94CF002DE040910101C701B6010E946D
:10111000CF002DE040910101C701B6010E94CF0030
:101120002DE040910101C701B6010E94CF002DE0E2
:1011300040910101C701B6010E94CF002CE040910F
:101140000101C701B6010E94CF002DE040910201CC
:10115000C701B6010E94CF002DE040910101C701F7
:10116000B6010E94CF002DE040910101C701B601F8
:101170000E94CF002DE040910101C701B6010E94FD
:10118000CF002DE040910201C701B6010E94CF00BF
:101190002DE040910101C701B6010E94CF002DE072
:1011A00040910201C701B6010E94CF002DE040919D
:1011B0000101C701B6010E94CF002DE0409101015D
:1011C000C701B6010E94CF002DE040910101C70187
:1011D000B6010E94CF002DE040910101C701B60188
:1011E0000E94CF0026E140910101C701B6010E9493
:1011F000CF0024E140910101C701B6010E94CF0058
:1012000021E140910201C701B6010E94CF0021E116
:1012100040910101C701B6010E94CF0021E1409138
:101220000101C701B6010E94CF0021E140910201F6
:10123000C701B6010E94CF0021E140910201C70120
:10124000B6010E94CF0021E140910201C701B60121
:101250000E94CF002FE040910101C701B6010E941A
:10126000CF0040910201440F21E1C701B6010E9465
:10127000CF002DE040910101C701B6010E94CF00CF
:101280002DE040910101C701B6010E94CF0021E18C
:1012900040910201C701B6010E94CF0021E14091B7
:1012A0000201C701B6010E94CF0021E14091020175
:1012B000C701B6010E94CF002FE040910101C70194
:1012C000B6010E94CF002FE040910201C701B60194
:1012D0000E94CF002DE040910101C701B6010E949C
:1012E000CF0040910201440F2AE0C701B6010E94DD
:1012F000CF002DE040910101C701B6010E94CF004F
:101300002DE040910101C701B6010E94CF0021E10B
:1013100040910201C701B6010E94CF0021E1409136
:101320000201C701B6010E94CF0021E140910201F4
:10133000C701B6010E94CF002FE040910101C70113
:10134000B6010E94CF0040910201440F21E1C70184
:10135000B6010E94CF002DE040910101C701B60106
:101360000E94CF002DE040910101C701B6010E940B
:10137000CF002DE040910101C701B6010E94CF00CE
:101380002DE040910101C701B6010E94CF004091BC
:101390000201440F24E1C701B6010E94CF00409131
:1013A0000201440F21E1C701B6010E94CF002DE0E8
:1013B00040910201C701B6010E94CF0024E1409193
:1013C0000101C701B6010E94CF0024E14091010153
:1013D000C701B6010E94CF0024E140910101C7017D
:1013E000B6010E94CF0040910201440F21E1C701E4
:1013F000B6010E94CF0021E140910101C701B60171
:101400000E94CF0021E140910101C701B6010E9475
:10141000CF0021E140910101C701B6010E94CF0038
:1014200021E140910101C701B6010E94CF0021E1F5
:1014300040910201C701B6010E94CF002DE040910A
:101440000201C701B6010E94CF0040910201440F82
:101450002FE0C701B6010E94CF002DE040910101AD
:10146000C701B6010E94CF002DE040910201C701E3
:10147000B6010E94CF002DE040910101C701B601E5
:101480000E94CF002DE040910201C701B6010E94E9
:10149000CF002DE040910101C701B6010E94CF00AD
:1014A00040910201440F28E0C701B6010E94CF001D
:1014B0002DE040910101C701B6010E94CF002DE04F
:1014C00040910201C701B6010E94CF002DE040917A
:1014D0000101C701B6010E94CF002DE04091020139
:1014E000C701B6010E94CF002DE040910101C70164
:1014F000B6010E94CF0040910201440F28E0C701CD
:10150000B6010E94CF002DE040910101C701B60154
:101510000E94CF002DE040910101C701B6010E9459
:10152000CF002DE040910101C701B6010E94CF001C
:101530002DE040910101C701B6010E94CF0040910A
:101540000201440F24E1C701B6010E94CF0040917F
:101550000201440F21E1C701B6010E94CF002DE036
:1015600040910201C701B6010E94CF0024E14091E1
:101570000101C701B6010E94CF0024E140910101A1
:10158000C701B6010E94CF0024E140910101C701CB
:10159000B6010E94CF0040910201440F21E1C70132
:1015A000B6010E94CF0021E140910101C701B601BF
:1015B0000E94CF0021E140910101C701B6010E94C4
:1015C000CF0021E140910101C701B6010E94CF0087
:1015D00021E140910101C701B6010E94CF0021E144
:1015E00040910201C701B6010E94CF002FE0409157
:1015F0000201C701B6010E94CF0040910201440FD1
:1016000021E1C701B6010E94CF002DE04091010108
:10161000C701B6010E94CF002DE040910101C70132
:10162000B6010E94CF002DE040910101C701B60133
:101630000E94CF002DE040910101C701B6010E9438
:10164000CF0024E140910201C701B6010E94CF0002
:1016500026E140910201C701B6010E94CF0024E1BA
:1016600040910101C701B6010E94CF0021E14091E4
:101670000201C701B6010E94CF002DE04091010197
:10168000C701B6010E94CF0021E140910101C701CD
:10169000B6010E94CF0024E140910101C701B601CB
:1016A0000E94CF0040910201440F21E1C701B60121
:1016B0000E94CF0028E040910101C701B6010E94BD
:1016C000CF0028E040910101C701B6010E94CF0080
:1016D00028E040910101C701B6010E94CF0028E037
:1016E00040910101C701B6010E94CF0028E040915E
:1016F0000201C701B6010E94CF002FE04091020114
:10170000C701B6010E94CF002DE040910201C70140
:10171000B6010E94CF0026E140910201C701B60147
:101720000E94CF0024E140910101C701B6010E944F
:10173000CF0021E140910201C701B6010E94CF0014
:101740002DE040910101C701B6010E94CF0021E1C7
:1017500040910101C701B6010E94CF0024E14091F0
:101760000101C701B6010E94CF0040910201440F60
:1017700021E1C701B6010E94CF0028E0409101019C
:10178000C701B6010E94CF0028E040910101C701C6
:10179000B6010E94CF0028E040910101C701B601C7
:1017A0000E94CF0028E040910101C701B6010E94CC
:1017B000CF0028E040910201C701B6010E94CF008E
:1017C0002FE040910201C701B6010E94CF002DE039
:1017D00040910201C701B6010E94CF00FF90EF9037
:1017E000DF90CF900895CF92DF92EF92FF926B013E
:1017F0007C0180910301482F440F480F480F480F88
:10180000480F480F2CE0C701B6010E94CF0080911D
:101810000301482F440F480F480F840F40910001E7
:10182000480F2CE0C701B6010E94CF008091030150
:10183000482F440F480F840F40910201840F90916C
:101840000001482F490F2CE0C701B6010E94CF00CC
:1018500080910301482F440F480F840F40910201EB
:10186000840F90910101482F490F2CE0C701B60168
:101870000E94CF0080910301482F440F480F840F2E
:1018800040910201480F2CE0C701B6010E94CF0031
:1018900040910301842F880F480F80910101480F68
:1018A0002CE0C701B6010E94CF0040910301440F14
:1018B00080910201480F2CE0C701B6010E94CF00C1
:1018C00040910301440F80910101480F2CE0C701B2
:1018D000B6010E94CF0040910301440F80910101A5
:1018E000480F2CE0C701B6010E94CF0040910301D0
:1018F000440F80910001480F2CE0C701B6010E94FF
:10190000CF0040910301440F80910001480F2CE06B
:10191000C701B6010E94CF0040910301440F2CE0A3
:10192000C701B6010E94CF0040910301440F2CE093
:10193000C701B6010E94CF004091030180910201CE
:10194000480F2CE0C701B6010E94CF00409103016F
:1019500080910201480F2CE0C701B6010E94CF0020
:101960004091030180910201480F2CE0C701B601AC
:101970000E94CF002CE040910201C701B6010E94F5
:10198000CF002CE040910201C701B6010E94CF00B8
:101990002CE040910201C701B6010E94CF002CE06B
:1019A00040910201C701B6010E94CF002CE0409196
:1019B0000201C701B6010E94CF002CE04091010155
:1019C000C701B6010E94CF002CE040910101C70180
:1019D000B6010E94CF002CE040910101C701B60181
:1019E0000E94CF002CE040910101C701B6010E9486
:1019F000CF002CE040910101C701B6010E94CF0049
:101A00002CE040910101C701B6010E94CF002CE0FB
:101A100040910101C701B6010E94CF002CE0409126
:101A20000101C701B6010E94CF002CE040910101E5
:101A3000C701B6010E94CF002CE040910101C7010F
:101A4000B6010E94CF002CE040910101C701B60110
:101A50000E94CF002CE040910101C701B6010E9415
:101A6000CF004091000180910401480F2CE0C70194
:101A7000B6010E94CF004091000180910401480FFF
:101A80002CE0C701B6010E94CF0040910001809177
:101A90000401480F2CE0C701B6010E94CF0040911D
:101AA000000180910401480F2CE0C701B6010E949B
:101AB000CF004091000180910401480F2CE0C70144
:101AC000B6010E94CF004091000180910401480FAF
:101AD0002CE0C701B6010E94CF0040910001809127
:101AE0000401480F2CE0C701B6010E94CF004091CD
:101AF000000180910401480F2CE0C701B6010E944B
:101B0000CF004091000180910401480F2CE0C701F3
:101B1000B6010E94CF004091000180910401480F5E
:101B20002CE0C701B6010E94CF00409100018091D6
:101B30000401480F2CE0C701B6010E94CF0040917C
:101B4000000180910401480F2CE0C701B6010E94FA
:101B5000CF004091000180910401480F2CE0C701A3
:101B6000B6010E94CF004091000180910401480F0E
:101B70002CE0C701B6010E94CF0040910001809186
:101B80000401480F2CE0C701B6010E94CF0040912C
:101B9000000180910401480F2CE0C701B6010E94AA
:101BA000CF004091000180910401480F2CE0C70153
:101BB000B6010E94CF004091000180910401480FBE
:101BC0002CE0C701B6010E94CF0040910001809136
:101BD0000401480F2CE0C701B6010E94CF004091DC
:101BE000000180910401480F2CE0C701B6010E945A
:101BF000CF004091000180910401480F2CE0C70103
:101C0000B6010E94CF002CE040910001C701B6014F
:101C10000E94CF002CE040910001C701B6010E9454
:101C2000CF002CE040910001C701B6010E94CF0017
:101C30002CE040910001C701B6010E94CF002CE0CA
:101C400040910001C701B6010E94CF002CE04091F5
:101C50000001C701B6010E94CF002CE040910001B5
:101C6000C701B6010E94CF002CE040910001C701DE
:101C7000B6010E94CF002CE040910001C701B601DF
:101C80000E94CF002CE040910001C701B6010E94E4
:101C9000CF002CE040910001C701B6010E94CF00A7
:101CA0002CE040910001C701B6010E94CF002CE05A
:101CB00040910001C701B6010E94CF002CE0409185
:101CC0000001C701B6010E94CF002CE04091000145
:101CD000C701B6010E94CF002CE040910001C7016E
:101CE000B6010E94CF002CE040910001C701B6016F
:101CF0000E94CF002CE040910001C701B6010E9474
:101D0000CF002CE040910001C701B6010E94CF0036
:101D10002CE040910001C701B6010E94CF002CE0E9
:101D200040910001C701B6010E94CF002CE0409114
:101D30000001C701B6010E94CF002CE040910001D4
:101D4000C701B6010E94CF002CE040910001C701FD
:101D5000B6010E94CF002CE040910001C701B601FE
:101D60000E94CF002CE040910001C701B6010E9403
:101D7000CF002CE040910001C701B6010E94CF00C6
:101D80002CE040910001C701B6010E94CF002CE079
:101D900040910201C701B6010E94CF002CE04091A2
:101DA0000201C701B6010E94CF002CE04091020160
:101DB000C701B6010E94CF002CE040910201C7018B
:101DC000B6010E94CF004091030180910201480FAB
:101DD0002CE0C701B6010E94CF0040910301809121
:101DE0000201480F2DE0C701B6010E94CF004091CB
:101DF000030180910201480F2CE0C701B6010E9447
:101E0000CF004091030180910201480F2BE0C701F0
:101E1000B6010E94CF0040910301842F880F480F24
:101E200080910201480F2CE0C701B6010E94CF004B
:101E300040910301842F880F480F80910201480FC1
:101E400021E1C701B6010E94CF0040910301842F18
:101E5000880F480F80910201480F24E1C701B601A5
:101E60000E94CF004091030180910201480F26E1BA
:101E7000C701B6010E94CF00409103018091020189
:101E8000480F26E1C701B6010E94CF00409103012F
:101E900080910201480F26E1C701B6010E94CF00E0
:101EA0004091030180910201480F26E1C701B6016C
:101EB0000E94CF004091030180910201480F26E16A
:101EC000C701B6010E94CF00409103018091020139
:101ED000480F24E1C701B6010E94CF0040910301E1
:101EE00080910201480F23E1C701B6010E94CF0093
:101EF0004091030180910201480F26E1C701B6011C
:101F00000E94CF004091030180910201480F24E11B
:101F1000C701B6010E94CF004091030180910201E8
:101F2000480F24E1C701B6010E94CF004091030190
:101F300080910201480F24E1C701B6010E94CF0041
:101F40004091030180910201480F24E1C701B601CD
:101F50000E94CF004091030180910201480F24E1CB
:101F6000C701B6010E94CF00409103018091020198
:101F7000480F23E1C701B6010E94CF004091030141
:101F800080910201480F21E1C701B6010E94CF00F4
:101F90004091030180910201480F24E1C701B6017D
:101FA0000E94CF004091030180910201480F23E17C
:101FB000C701B6010E94CF00409103018091020148
:101FC000480F23E1C701B6010E94CF0040910301F1
:101FD00080910201480F23E1C701B6010E94CF00A2
:101FE0004091030180910201480F23E1C701B6012E
:101FF0000E94CF0040910301440F80910201480FDD
:102000002EE0C701B6010E94CF0040910301440FAA
:1020100080910201480F23E1C701B6010E94CF0061
:1020200040910301842F880F480F80910201480FCF
:1020300020E1C701B6010E94CF0080910301482F23
:10204000440F480F480F840F40910201480F2CE0C5
:10205000C701B6010E94CF002CE040910301C701E7
:10206000B6010E94CF002CE040910301C701B601E8
:102070000E94CF002CE040910301C701B6010E94ED
:10208000CF002CE040910301C701B6010E94CF00B0
:102090002CE040910301C701B6010E94CF002CE063
:1020A00040910301C701B6010E94CF002CE040918E
:1020B0000301C701B6010E94CF002CE0409103014B
:1020C000C701B6010E94CF002CE040910301C70177
:1020D000B6010E94CF002CE040910301C701B60178
:1020E0000E94CF002CE040910301C701B6010E947D
:1020F000CF002CE040910301C701B6010E94CF0040
:102100002CE040910301C701B6010E94CF002CE0F2
:1021100040910301C701B6010E94CF002CE040911D
:102120000301C701B6010E94CF002CE040910301DA
:10213000C701B6010E94CF002CE040910301C70106
:10214000B6010E94CF002DE040910301C701B60106
:102150000E94CF002CE040910301C701B6010E940C
:10216000CF002BE040910301C701B6010E94CF00D0
:1021700040910301440F80910201480F2CE0C701F8
:10218000B6010E94CF0021E140910301C701B601D1
:102190000E94CF0024E140910301C701B6010E94D3
:1021A000CF0028E140910301C701B6010E94CF0092
:1021B0002DE140910301C701B6010E94CF0040917B
:1021C0000301842F880F480F2DE1C701B6010E943B
:1021D000CF0026E140910301C701B6010E94CF0064
:1021E00024E140910301C701B6010E94CF0023E121
:1021F00040910301C701B6010E94CF0026E1409142
:102200000301C701B6010E94CF0024E14091030100
:10221000C701B6010E94CF0023E140910301C7012D
:10222000B6010E94CF0021E140910301C701B60130
:102230000E94CF0024E140910301C701B6010E9432
:10224000CF0023E140910301C701B6010E94CF00F6
:1022500021E140910301C701B6010E94CF0020E1B6
:1022600040910301C701B6010E94CF0023E14091D4
:102270000301C701B6010E94CF0021E14091030193
:10228000C701B6010E94CF002CE040910301C701B5
:10229000B6010E94CF0028E040910301C701B601BA
:1022A0000E94CF0025E040910301C701B6010E94C2
:1022B000CF004091020180910101480F29E1C7013F
:1022C000B6010E94CF004091020180910101480FA8
:1022D00028E1C701B6010E94CF0040910201809120
:1022E0000101480F26E1C701B6010E94CF004091CD
:1022F000020180910101480F24E1C701B6010E944B
:10230000CF004091020180910101480F23E1C701F4
:10231000B6010E94CF004091020180910101480F57
:1023200021E1C701B6010E94CF00409102018091D6
:102330000101480F20E1C701B6010E94CF00409182
:10234000020180910101480F23E1C701B6010E94FB
:10235000CF0040910301440F80910201480F80910A
:102360000101480F21E1C701B6010E94CF00409151
:102370000301842F880F480F80910201480F25E048
:10238000C701B6010E94CF00409103018091020174
:10239000480F26E1C701B6010E94CF00409102011B
:1023A00080910101480F25E1C701B6010E94CF00CD
:1023B0004091020180910101480F26E1C701B60159
:1023C0000E94CF004091020180910101480F28E155
:1023D000C701B6010E94CF00409102018091010126
:1023E000480F29E1C701B6010E94CF0040910201C8
:1023F00080910101480F28E1C701B6010E94CF007A
:102400004091020180910101480F26E1C701B60108
:102410000E94CF004091020180910101480F29E103
:10242000C701B6010E94CF008091010140910201D5
:10243000480F480F28E1C701B6010E94CF00409124
:10244000020180910101480F26E1C701B6010E94F7
:10245000CF004091020180910101480F24E1C701A2
:10246000B6010E94CF004091020180910101480F06
:1024700026E1C701B6010E94CF0040910301440F3D
:1024800080910201480F80910101480F28E1C701A6
:10249000B6010E94CF004091020180910101480FD6
:1024A00024E1C701B6010E94CF0040910201809152
:1024B0000101480F23E1C701B6010E94CF004091FE
:1024C000020180910101480F22E1C701B6010E947B
:1024D000CF004091020180910101480F23E1C70123
:1024E000B6010E94CF004091020180910101480F86
:1024F00024E1C701B6010E94CF0040910201809102
:102500000101480F26E1C701B6010E94CF004091AA
:10251000020180910101480F24E1C701B6010E9428
:10252000CF004091020180910101480F23E1C701D2
:10253000B6010E94CF004091020180910101480F35
:1025400026E1C701B6010E94CF00409102018091AF
:102550000101480F24E1C701B6010E94CF0040915C
:10256000020180910101480F21E1C701B6010E94DB
:10257000CF004091020180910101480F24E1C70181
:10258000B6010E94CF004091020180910101480FE5
:1025900028E1C701B6010E94CF004091020180915D
:1025A0000101480F2DE1C701B6010E94CF00409103
:1025B000020180910101480F28E1C701B6010E9484
:1025C000CF004091020180910101480F24E1C70131
:1025D000B6010E94CF004091020180910101480F95
:1025E00021E1C701B6010E94CF0040910301809113
:1025F0000201480F26E1C701B6010E94CF004091B9
:10260000020180910101480F25E1C701B6010E9436
:10261000CF004091020180910101480F26E1C701DE
:10262000B6010E94CF004091020180910101480F44
:1026300028E1C701B6010E94CF00409102018091BC
:102640000101480F29E1C701B6010E94CF00409166
:10265000020180910101480F28E1C701B6010E94E3
:10266000CF004091020180910101480F26E1C7018E
:10267000B6010E94CF008091010140910201480FF4
:10268000480F29E1C701B6010E94CF004091020125
:1026900080910101480F28E1C701B6010E94CF00D7
:1026A0004091020180910101480F26E1C701B60166
:1026B0000E94CF004091020180910101480F24E166
:1026C000C701B6010E94CF00409102018091010133
:1026D000480F26E1C701B6010E94CF0040910301D7
:1026E000440F80910201480F80910101480F28E1B9
:1026F000C701B6010E94CF0040910301440F8091B1
:102700000201480F80910101480F2DE1C701B60178
:102710000E94CF004091020180910101480F26E103
:10272000C701B6010E94CF004091020180910101D2
:10273000480F29E1C701B6010E94CF004091020174
:1027400080910101480F28E1C701B6010E94CF0026
:102750004091020180910101480F24E1C701B601B7
:102760000E94CF004091020180910101480F26E1B3
:10277000C701B6010E94CF00409102018091010182
:10278000480F23E1C701B6010E94CF004091030129
:10279000440F80910201480F80910101480F21E10F
:1027A000C701B6010E94CF00409102018091010152
:1027B000480F2CE0C701B6010E94CF0040910201F2
:1027C00080910101480F21E1C701B6010E94CF00AD
:1027D000FF90EF90DF90CF9008958FEF8AB987B187
:1027E0008E7F87B987B18D7F87B987B18B7F87B996
:1027F00087B1877F87B9319B09C088B1826088B96A
:1028000060E070E088EC92E40E945803309B09C0BD
:1028100088B1816088B960E070E086E193E40E944D
:102820009701329B09C088B1846088B960E070E08C
:1028300086E193E40E94E105339BDDCF88B1886097
:1028400088B960E070E08AEF93E40E94F30BD3CF85
:102850000E943C140C941D150E94161558F00E94FD
:102860000F1540F029F45F3F29F00C940615511123
:102870000C9451150C940C150E942E1568F3992395
:10288000B1F3552391F3951B550BBB27AA2762176C
:102890007307840738F09F5F5F4F220F331F441F79
:1028A000AA1FA9F335D00E2E3AF0E0E832D09150AD
:1028B0005040E695001CCAF72BD0FE2F29D0660F9A
:1028C000771F881FBB1F261737074807AB07B0E8DD
:1028D00009F0BB0B802DBF01FF2793585F4F3AF0E3
:1028E0009E3F510578F00C9406150C9451155F3FEE
:1028F000E4F3983ED4F3869577956795B795F79569
:102900009F5FC9F7880F911D9695879597F9089550
:10291000E1E0660F771F881FBB1F621773078407EC
:10292000BA0720F0621B730B840BBA0BEE1F88F7FB
:10293000E09508950E94361588F09F5798F0B92FBA
:102940009927B751B0F0E1F0660F771F881F991FE4
:102950001AF0BA95C9F714C0B13091F00E94501521
:10296000B1E008950C945015672F782F8827B85F31
:1029700039F0B93FCCF3869577956795B395D9F73C
:102980003EF490958095709561957F4F8F4F9F4F46
:102990000895E89409C097FB3EF490958095709552
:1029A00061957F4F8F4F9F4F9923A9F0F92F96E99B
:1029B000BB279395F695879577956795B795F11110
:1029C000F8CFFAF4BB0F11F460FF1BC06F5F7F4FAD
:1029D0008F4F9F4F16C0882311F096E911C07723BF
:1029E00021F09EE8872F762F05C0662371F096E8C8
:1029F000862F70E060E02AF09A95660F771F881F97
:102A0000DAF7880F9695879597F9089597F99F6754
:102A100080E870E060E008959FEF80EC0895002466
:102A20000A941616170618060906089500240A9433
:102A300012161306140605060895092E0394000CB9
:102A400011F4882352F0BB0F40F4BF2B11F460FF48
:102A500004C06F5F7F4F8F4F9F4F089557FD905871
:102A6000440F551F59F05F3F71F04795880F97FB52
:102A7000991F61F09F3F79F087950895121613060C
:102A80001406551FF2CF4695F1DF08C0161617063B
:102A90001806991FF1CF8695710561050894089570
:102AA000E894BB2766277727CB0197F908950E9402
:102AB0006A150C941D150E940F1538F00E9416150A
:102AC00020F0952311F00C9406150C940C1511248C
:102AD0000C9451150E942E1570F3959FC1F3950F1C
:102AE00050E0551F629FF001729FBB27F00DB11D92
:102AF000639FAA27F00DB11DAA1F649F6627B00D22
:102B0000A11D661F829F2227B00DA11D621F739F0A
:102B1000B00DA11D621F839FA00D611D221F749F18
:102B20003327A00D611D231F849F600D211D822F5F
:102B3000762F6A2F11249F5750409AF0F1F0882386
:102B40004AF0EE0FFF1FBB1F661F771F881F9150B3
:102B50005040A9F79E3F510580F00C9406150C9447
:102B600051155F3FE4F3983ED4F3869577956795CA
:102B7000B795F795E7959F5FC1F7FE2B880F911DDD
:102B80009695879597F90895EE0FFF1F0590F4919C
:082B9000E02D0994F894FFCF39
:042B9800010204082A
:00000001FF
